:020000040000FA
:060000000A128A11EE2F26
:100C64000A128A1142260A128A1108003F340634F5
:100C74005B344F3466346D347D3407347F346F34E1
:100C840083160313880105080339850083120313AF
:100C940005080339850008007E088A007F08820061
:100CA4000A128A114E260A128A118000840A040844
:100CB4007D0603190034FF0A0319FE0A522E700838
:100CC40071040319662E672E942E0130F400732EDE
:100CD40001300310F00DF10DFF3E031D6B2E0130AA
:100CE400F407F11F762E772E6A2E71087302031D06
:100CF4007D2E70087202031C802E812E872E7008B0
:100D0400F2027108031CF303F30201300310F10C27
:100D1400F00CFF3E031D882E0130F402031D932EB8
:100D2400942E772E7308F1007208F0000800F90180
:100D3400FA01750876040319A02EA12ED62E0130CF
:100D4400FB00AD2E01300310F50DF60DFF3E031D23
:100D5400A52E0130FB07F61FB02EB12EA42E0130B4
:100D64000310F90DFA0DFF3E031DB22E760878022A
:100D7400031DBE2E75087702031CC12EC22EC92E78
:100D84007508F7027608031CF803F8027914013099
:100D94000310F60CF50CFF3E031DCA2E0130FB02B6
:100DA400031DD52ED62EB12E7A08F6007908F5004B
:100DB4000800F90179087007F100710884008313B1
:100DC40000088312031388000430F100790AEC2E22
:100DD4000310F10DFF3E031DEA2E050803397104CB
:100DE40085000030F8000030F7000130F600903044
:100DF400F5000130F1000030F2000030F300003063
:100E0400F4007108F5027208031C720F0A2F0B2FED
:100E1400F6027308031C730F102F112FF7027408C6
:100E2400031C740F162F172FF802750A031D242FA5
:100E3400760A031D242F770A031D242F780A031D25
:100E4400242F252FFB2E0130F90704307902031CCF
:100E54002C2F2D2FDC2E080083120313B401B501AF
:100E6400E830B2000330B300363084002430A000F0
:100E74000A30A10083130008A200040AA30020087A
:100E8400840022088000040AA00023088400A10B27
:100E94003C2F0A128A1132260A128A110130831257
:100EA4000313B2020030031CB303B302320A031D5E
:100EB4005F2F330A031D5F2F602F752FE830B200B8
:100EC4000330B3000130B4070318B50A0030B50786
:100ED40027303502103003193402031C722F732F8C
:100EE400752FB401B501E830F5000330F60035087C
:100EF400F8003408F7000A128A1199260A128A1196
:100F04007508243E84008313000883120313AE0083
:100F14006430F5000030F6003508F3003408F200C0
:100F2400E830F0000330F1000A128A1161260A1237
:100F34008A117108F8007008F7000A128A119926BC
:100F44000A128A117508243E840083130008831250
:100F54000313AF000A30F5000030F6003508F30043
:100F64003408F2006430F0000030F1000A128A11F3
:100F740061260A128A117108F8007008F7000A1233
:100F84008A1199260A128A117508243E8400831353
:100F9400000883120313B0000A30F0000030F1009F
:100FA4003508F3003408F2000A128A1161260A1285
:100FB4008A117008243E84008313000883120313EB
:100FC400B1002E30F0000A128A11DB260A128A11AF
:100FD400502F0A128A11002883134030FD00063076
:100FE400FE003830FF00363084000A128A1152267F
:0C0FF4000A128A1183010A128A112E2FA2
:02400E00FB3F76
:00000001FF
