:100000000A128A11F62F00308A000408840A820737
:10001000003420344D3461347434723469347834AB
:10002000203420344B346534793470346134643492
:100030002034003420344E346F3420344B34653453
:100040007934203450347234653473347334653405
:10005000643420340034203420342034503472345A
:100060006534733473346534643400344B3465342C
:080070007934203420340034FF
:100BA6000134831603138801091189100A128A1168
:100BB600E7260A128A110800831603130608073867
:100BC60086000808F03988008113831203138815FC
:100BD6000815881408140800F500F00174080A12B4
:100BE6008A1172260A128A11F001F00A75080A1291
:100BF6008A1172260A128A1108000A128A11D4254D
:100C06000A128A110A128A11DF250A128A11013084
:100C1600F4008030F5000A128A114D260A128A1154
:100C260008000A128A1100260A128A1100300A12D6
:100C36008A112A260A128A11F70077080A128A11DF
:100C4600A8260A128A11192E0A128A110028F20001
:100C56000A128A114A270A128A11F3007208031D22
:100C6600352E362E382E73084C2E730A03193C2E59
:100C76003D2E442E78080319412E422E442EF801AB
:100C8600362E730A031D482E492E4B2E0130F800CE
:100C9600FF300800F00175080A128A1172260A123E
:100CA6008A11652EF001F00A740884000A128A116E
:100CB60003200A128A110A128A1172260A128A114E
:100CC6000130F407740884000A128A1103200A12FC
:100CD6008A11003A031D702E712E552E0800F3005E
:100CE6007018762E7A2E8312031309157D2E831221
:100CF600031309117308F03988008914A630F1002E
:100D0600F10B832E000083120313891073080F3929
:100D1600F10003300310F10DFF3E031D8D2E03106D
:100D2600710D88008914A630F100F10B982E000091
:100D36008312031389101B30F2009E30F100F10B71
:100D4600A22EF20BA22E00000800F600760A031966
:100D5600AD2EAE2EDD2E2E30F400C030F5000A1278
:100D66008A114D260A128A11CB2EC530F400760858
:100D76000A128A11EF250A128A11D32EC530F40001
:100D86007608303E0A128A11EF250A128A11D32EEE
:100D96007608233A0319B82E093A0319B82EC12E3C
:100DA6002330F400C630F5000A128A114D260A12C5
:100DB6008A11E62E1230F400C030F5000A128A11AC
:100DC6004D260A128A110800C330F500CD30F40012
:100DD600F40BEB2EF50BEB2EF00133300A128A11D1
:100DE60072260A128A111B30F5009E30F400F40BAD
:100DF600FA2EF50BFA2E0000F00133300A128A1192
:100E060072260A128A11A630F400F40B082F00008D
:100E1600F00133300A128A1172260A128A11132F30
:100E2600142F0000F00102300A128A1172260A12EB
:100E36008A11A630F400F40B1E2F0000F0012830B2
:100E46000A128A1172260A128A11A630F400F40BCD
:100E56002A2F0000F00101300A128A1172260A12A6
:100E66008A110430F5003D30F400F40B382FF50BF1
:100E7600382F3D2FF0010C300A128A1172260A1201
:100E86008A11A630F400F40B462F000008008312E6
:100E9600031388110815881408146430F000003014
:100EA600F100FF30F0070318F10AFF30F107700A6E
:100EB600031D612F710A031D612F622F542F8312A8
:100EC60003130618672F682F6A2F0130F52F86182F
:100ED6006D2F6E2F702F0230F52F0619732F742F7A
:100EE600762F0330F52F88150811881408146430FE
:100EF600F0000030F100FF30F0070318F10AFF3070
:100F0600F107700A031D8B2F710A031D8B2F8C2F7F
:100F16007E2F831203130618912F922F942F0430DD
:100F2600F52F8618972F982F9A2F0530F52F06192B
:100F36009D2F9E2FA02F0630F52F88150815881097
:100F460008146430F0000030F100FF30F007031899
:100F5600F10AFF30F107700A031DB52F710A031D50
:100F6600B52FB62FA82F831203130618BB2FBC2F3D
:100F7600BE2F0730F52F8618C12FC22FC42F083079
:100F8600F52F0619C72FC82FCA2F0930F52F881538
:100F96000815881408106430F0000030F100FF30A6
:100FA600F0070318F10AFF30F107700A031DDF2F5F
:100FB600710A031DDF2FE02FD22F831203130618A9
:100FC600E52FE62FE82F2A30F52F8618EB2FEC2F8A
:100FD600EE2F0030F52F0619F12FF22FF42F2330C4
:100FE600F52FFF3008000A128A11D3250A128A113A
:0A0FF600F80083010A128A11142E7C
:08400000FF3FFF3FFF3FFF3FC0
:02400E00FB3F76
:00000001FF
