:020000040000FA
:060000000A128A11F62F1E
:100EA60001348316031306083F38860008008312B0
:100EB600031388018316031388010A128A11542723
:100EC6000A128A110800F1007108031D6B2F6C2F9E
:100ED600712F8312031306083F398F2F3F30831279
:100EE60003130605F0003F30700603197B2F7C2F95
:100EF600832F79080319802F812F832FF9016C2FF7
:100F06003F300605F0003F307006031D8B2F8C2FF7
:100F16008E2F0130F9003F3008000A128A115A2735
:100F26000A128A1100300A128A1166270A128A11D9
:100F3600F8003E307806031DA12FA22FB92F0130ED
:100F46008312031388065030F200C330F3000130D9
:100F5600F2020030031CF303F302720A031DB72FDB
:100F6600730A031DB72FB82FAA2F952F3D30780689
:100F7600031DBE2FBF2FD62F023083120313880600
:100F86005030F400C330F5000130F4020030031C89
:100F9600F503F502740A031DD42F750A031DD42F19
:100FA600D52FC72F952F3B307806031DDB2FDC2F5F
:100FB600952F04308312031388065030F600C33091
:100FC600F7000130F6020030031CF703F702760A39
:100FD600031DF12F770A031DF12FF22FE42F952F12
:100FE6000A128A1100280A128A1153270A128A1134
:0A0FF600F90083010A128A11902FFE
:02400E00FB3F76
:00000001FF
