:100000000A128A11FC2FFF1B0D2883137F188317F8
:100010000008840A0319FF0A080000308A00040857
:10002000840A820700344134443443342034543445
:100030006534733474340034433430343A34003427
:08004000433431343A3400343A
:100B4000831603139F17831203131F1408008316C1
:100B500003138801091189100A128A11F4260A1256
:100B60008A1108000A128A11A7250A128A110A128C
:100B70008A11A0250A128A110130F4008030F50094
:100B80008430F6000A128A1115260A128A1108000A
:100B9000F5007508F20003300310F20DFF3E031D4F
:100BA000CC2D831203131F08C73972049F001F1531
:100BB0001F19DB2DDC2DD82D1E08F400831603131E
:100BC0001E08F3007408F1007308F00008000A1210
:100BD0008A11B2250A128A1100300A128A11C82518
:100BE0000A128A11710883120313A8007008A70063
:100BF00001300A128A11C8250A128A11710883125B
:100C00000313AA007008A9002808F8002708F700B5
:100C10002A08FA002908F9000A128A1157270A122D
:100C20008A11EC2D0A128A110028F00176080A12A6
:100C30008A1144260A128A11332EF001F00A75082F
:100C4000FF00740884000A128A1103200A128A1114
:100C50000A128A1144260A128A110130F407031875
:100C6000F50A0030F507750883120313FF007408B6
:100C700084000A128A1103200A128A11003A031D05
:100C8000422E432E1D2E0800F3007018482E4C2EC5
:100C90008312031309154F2E8312031309117308CE
:100CA000F03988008914A630F100F10B552E0000B0
:100CB00083120313891073080F39F10003300310F6
:100CC000F10DFF3E031D5F2E0310710D8800891486
:100CD000A630F100F10B6A2E000083120313891075
:100CE0001B30F2009E30F100F10B742EF20B742ECB
:100CF000000008007008710403197F2E802EAD2EAD
:100D00000130F4008C2E01300310F00DF10DFF3E88
:100D1000031D842E0130F407F11F8F2E902E832E99
:100D200071087302031D962E70087202031C992E1F
:100D30009A2EA02E7008F2027108031CF303F3022E
:100D400001300310F10CF00CFF3E031DA12E013009
:100D5000F402031DAC2EAD2E902E7308F100720824
:100D6000F0000800F401F501700871040319B92EB0
:100D7000BA2EEF2E0130F600C62E01300310F00D12
:100D8000F10DFF3E031DBE2E0130F607F11FC92EE7
:100D9000CA2EBD2E01300310F40DF50DFF3E031DCC
:100DA000CB2E71087302031DD72E70087202031C2C
:100DB000DA2EDB2EE22E7008F2027108031CF30318
:100DC000F302741401300310F10CF00CFF3E031D0C
:100DD000E32E0130F602031DEE2EEF2ECA2E75080B
:100DE000F1007408F0000800C330F500CD30F400C5
:100DF000F40BF82EF50BF82EF00133300A128A119D
:100E000044260A128A111B30F5009E30F400F40BC0
:100E1000072FF50B072F0000F00133300A128A115B
:100E200044260A128A11A630F400F40B152F000094
:100E3000F00133300A128A1144260A128A11202F37
:100E4000212F0000F00102300A128A1144260A12F2
:100E50008A11A630F400F40B2B2F0000F00128308B
:100E60000A128A1144260A128A11A630F400F40BE1
:100E7000372F0000F00101300A128A1144260A12AD
:100E80008A110430F5003D30F400F40B452FF50BCA
:100E9000452F4A2FF0010C300A128A1144260A12FB
:100EA0008A11A630F400F40B532F000008000A301A
:100EB000F4008030F500C030F6000A128A111526C1
:100EC0000A128A11033083120313A5000030A60012
:100ED0002508203E84000A30F0000030F100780838
:100EE000F3007708F2000A128A117A260A128A1190
:100EF0007008303E831380000A30F0000030F100AB
:100F00007808F3007708F2000A128A11B2260A1252
:100F10008A117108F8007008F700FF30831203137C
:100F2000A5070318A60AFF30A607250A031D9C2F54
:100F3000260A031D9C2F9D2F682FA4012030F4004A
:100F40000030F500C330F6000A128A1115260A1285
:100F50008A110E30F4008030F500C930F6000A1214
:100F60008A1115260A128A11033083120313A50071
:100F70000030A6002508203E84000A30F000003032
:100F8000F1007A08F3007908F2000A128A117A2631
:100F90000A128A117008303E831380000A30F00074
:100FA0000030F1007A08F3007908F2000A128A1181
:100FB000B2260A128A117108FA007008F900FF308F
:100FC00083120313A5070318A60AFF30A607250AF4
:100FD000031DEE2F260A031DEE2FEF2FBA2FA401BB
:100FE0002030F4000030F500CC30F6000A128A11EF
:100FF00015260A128A11080083010A128A11E72DA8
:08400000FF3FFF3FFF3FFF3FC0
:02400E00FB3F76
:00000001FF
