:060000000A128A11ED2F27
:100E8200013432348316031306083F388600080003
:100E92008312031388018316031388010A128A112D
:100EA20043270A128A1108000A128A1149270A12D4
:100EB2008A1100300A128A117D270A128A11F4005F
:100EC20074080A128A11A7270A128A111030F20036
:100ED2002730F300FF30F2070318F30AFF30F3075D
:100EE200720A031D782F730A031D782F792F6B2F37
:100EF2005A2F0A128A110028F1007108031D822F4D
:100F0200832F882F8312031306083F39A62F3F3001
:100F1200831203130605F0003F3070060319922F67
:100F2200932F9A2F78080319972F982F9A2FF80149
:100F3200832F3F300605F0003F307006031DA22FBD
:100F4200A32FA52F0130F8003F300800F000013038
:100F5200F5020030031CF603F602750A031DB52FD5
:100F6200760A031DB52FB62FD62FF430F5000130C7
:100F7200F6003E307006031DBF2FC02FC92F64300C
:100F820079060319C52FC62FD62F0130F907D62FA0
:100F92003D307006031DCE2FCF2FD62F79080319AF
:100FA200D32FD42FD62F0130F90277087902031CF0
:100FB200DB2FDC2FE02F831203130814E32F83129D
:100FC2000313081064307706031DE82FE92FEA2F78
:100FD200F7010130F70708000A128A1141270A12A5
:100FE2008A11F8000A128A1142270A128A11F9009C
:0E0FF200F501F601F70183010A128A11552F4D
:08400000FF3FFF3FFF3FFF3FC0
:02400E00FB3F76
:00000001FF
