:100000000A128A11FC2F00308A000408840A820731
:0E001000003457346F3472346C34643400346E
:100E04000A128A1108270A128A110800831603138A
:100E14008801091189100A128A1199270A128A1164
:100E24000800F500F00174080A128A1163270A12F7
:100E34008A11F001F00A75080A128A1163270A124E
:100E44008A1108000A128A1102270A128A118430B0
:100E5400F40057300A128A1113270A128A1101303A
:100E6400F400C430F5000A128A113E270A128A11CE
:100E7400292F0A128A110028F00175080A128A1112
:100E840063270A128A11562FF001F00A74088400AD
:100E94000A128A1103200A128A110A128A1163277C
:100EA4000A128A110130F407740884000A128A11A4
:100EB40003200A128A11003A031D612F622F462F64
:100EC4000800F3007018672F6B2F831203130915A2
:100ED4006E2F8312031309117308F03988008914E3
:100EE400A630F100F10B742F000083120313891054
:100EF40073080F39F10003300310F10DFF3E031D99
:100F04007E2F0310710D88008914A630F100F10BB7
:100F1400892F00008312031389101B30F2009E30C6
:100F2400F100F10B932FF20B932F00000800C33054
:100F3400F500CD30F400F40B9D2FF50B9D2FF0013F
:100F440033300A128A1163270A128A111B30F50002
:100F54009E30F400F40BAC2FF50BAC2F0000F00125
:100F640033300A128A1163270A128A11A630F40058
:100F7400F40BBA2F0000F00133300A128A116327F0
:100F84000A128A11C52FC62F0000F00102300A127E
:100F94008A1163270A128A11A630F400F40BD02FA9
:100FA4000000F00128300A128A1163270A128A11FC
:100FB400A630F400F40BDC2F0000F00101300A121B
:100FC4008A1163270A128A110430F5003D30F400B7
:100FD400F40BEA2FF50BEA2FEF2FF0010C300A1275
:100FE4008A1163270A128A11A630F400F40BF82F31
:0C0FF4000000080083010A128A11242F5B
:08400000FF3FFF3FFF3FFF3FC0
:02400E00FB3F76
:00000001FF
