:100000000A128A11FC2F00308A000408840A820731
:0E0010000034483465346C346C346F34003482
:100E48000A128A112A270A128A1108008316031324
:100E58008801091189100A128A11A5270A128A1114
:100E68000800F500F00174080A128A1160270A12B6
:100E78008A11F001F00A75080A128A1160270A120D
:100E88008A1108000A128A1124270A128A1180304E
:100E9800F40048300A128A1135270A128A110130E3
:100EA800F400C030F5000A128A1180270A128A114C
:100EB8004B2F0A128A110028F3007018642F682F2C
:100EC8008312031309156B2F831203130911730877
:100ED80088008914A630F100F10B702F00008312EE
:100EE800031389101B30F2009E30F100F10B7A2FAA
:100EF800F20B7A2F00000800F00175080A128A1117
:100F080060270A128A11982FF001F00A74088400E9
:100F18000A128A1103200A128A110A128A116027FA
:100F28000A128A110130F407740884000A128A111F
:100F380003200A128A11003A031DA32FA42F882F19
:100F48000800C330F500CD30F400F40BA92FF50BE1
:100F5800A92FF00133300A128A1160270A128A1168
:100F68001B30F5009E30F400F40BB82FF50BB82FAA
:100F78000000F00133300A128A1160270A128A1120
:100F8800A630F400F40BC62F0000F00133300A122B
:100F98008A1160270A128A11D12FD22F0000F0017E
:100FA80038300A128A1160270A128A11A630F40012
:100FB800F40BDC2F0000F00101300A128A116027BF
:100FC8000A128A110430F5003D30F400F40BEA2FC0
:100FD800F50BEA2FEF2FF0010C300A128A11602767
:100FE8000A128A11A630F400F40BF82F000008004A
:080FF80083010A128A11462F41
:08400000FF3FFF3FFF3FFF3FC0
:02400E00FB3F76
:00000001FF
