:020000040000FA
:060000000A128A110C280F
:10000800FE00030EF2000A08F3000A128A111528EE
:100018000A128A110F28F001F10183010A128A11CC
:100028004F28831203138C1C1A281B282D280130F3
:10003800F0070318F10A0030F1077D3070067104EB
:10004800031D272828282C28F001F10101308806F3
:100058008C1073088A00720E8300FE0E7E0E090053
:100068008312031388018316031388010A128A1165
:1000780042200A128A110B178B17080083120313E8
:1000880012149214FA308316031392008C148312FC
:100098000313121508000A128A1134200A128A1151
:0800A80054280A128A110C28E9
:02400E00FB3F76
:00000001FF
