:060000000A128A11EC2F28
:10008C00013432348316031306083F388600080007
:10009C00831603130711F930920083120313121401
:1000AC00921012150C30970008008312031388016C
:1000BC008316031388010A128A1148200A128A1126
:1000CC000A128A114E200A128A110800F800F40153
:1000DC00F5017008F200F3017208F6007308F700DE
:1000EC00781C79287A2880287608F4070318F50AF2
:1000FC007708F50701300310F60DF70DFF3E031DD1
:10010C0081280310F80C7808031D8D288E2876287A
:10011C007508F1007408F0000800F1007108031D67
:10012C00982899289E288312031306083F39BC2867
:10013C003F30831203130605F0003F30700603199D
:10014C00A828A928B0286D080319AD28AE28B02816
:10015C00ED0199283F300605F0003F307006031D75
:10016C00B828B928BB280130ED003F3008000A122E
:10017C008A115B200A128A1100300A128A1193200C
:10018C000A128A1183120313EC006C080A128A11EA
:10019C00E9200A128A11103083120313EA00273067
:1001AC00EB00FF30EA070318EB0AFF30EB076A0A93
:1001BC00031DE4286B0A031DE428E528D728C22870
:1001CC000A128A11002883120313E90001308316E6
:1001DC000313A0020030031CA103A102200A031D7B
:1001EC00FB28210A031DFB28FC281C29A001A101C6
:1001FC003E30831203136906031D052906290F29B6
:10020C0064306E0603190B290C291C290130EE07EA
:10021C001C293D306906031D142915291C296E085B
:10022C00031919291A291C290130EE0283126E08B0
:10023C000A128A119A210A128A11080003108312D9
:10024C000313560D570DDD005D08031D2E292F29B4
:10025C0038290030D7000030D6000030D5000030EF
:10026C00D40099295408D8005508D9005608DA004A
:10027C005708DB001F300310DB0CDA0CD90CD80C40
:10028C00FF3E031D41295808DC00D617FF30D4056A
:10029C00FF30D505FF30D6050030D7059630DD028E
:1002AC00DD1F59295A2972295D08803A973E031897
:1002BC006029612962292F2901300310D70CD60C33
:1002CC00D50CD40CFF3E031D63290130DD07031D43
:1002DC00702971296229892920305D02031C772934
:1002EC00782984292F290130D8000310D40DD50D7D
:1002FC00D60DD70DD80B7B290130DD025D08031D0F
:10030C008829892979295C0803198D298E2999292D
:10031C00D409D509D609D709D40A0319D50A031962
:10032C00D60A0319D70A080083120313E6006608DD
:10033C00DE00DF01E001E1016108F3006008F2007A
:10034C005F08F1005E08F00000300A128A112C22BE
:10035C000A128A11730883120313A7007208A600ED
:10036C007108A5007008A4004230A300C830A20098
:10037C000030A1000030A0000A128A11E0220A12FB
:10038C008A11831203132308C1002208C00021081C
:10039C00BF002008BE004330BD007A30BC000030E6
:1003AC00BB000030BA000A128A11AA240A128A1160
:1003BC00831203133D08E5003C08E4003B08E3000E
:1003CC003A08E2006508C1006408C0006308BF0079
:1003DC006208BE004030BD008030BC000030BB0065
:1003EC000030BA000A128A11AA240A128A11831246
:1003FC0003133D08D7003C08D6003B08D5003A084B
:10040C00D4000A128A1124210A128A1183120313AE
:10041C005508E8005408E7006808DF006708DE00AC
:10042C000310DF0CDE0C0310DF0CDE0C5E089500F5
:10043C0067080339DE0004300310DE0DFF3E031D98
:10044C00222A1708CF395E0497000800F8007808B4
:10045C000319312A322A462AF31F352A362A462A0C
:10046C007009FA007109FB007209FC007309FD00A8
:10047C00FA0A0319FB0A0319FC0A0319FD0A4E2A8E
:10048C007308FD007208FC007108FB007008FA008C
:10049C007308720471047004031D552A562A5F2ACE
:1004AC000030F3000030F2000030F1000030F000BA
:1004BC00DF2A9630F9006D2A0130F907013003105C
:1004CC00FD0CFC0CFB0CFA0CFF3E031D652AFE30E8
:1004DC007D05031D722A732A622A8D2A0130F907C1
:1004EC000130FA07003003180130FB070030031805
:1004FC000130FC07003003180130FD0701300310F8
:10050C00FD0CFC0CFB0CFA0CFF3E031D852AFF3086
:10051C007D05031D922A932A742A9F2A0130F90221
:10052C000130F4000310FA0DFB0DFC0DFD0DF40B66
:10053C00982AFC1BA22AA32AA92A023079020318A2
:10054C00A82AA92A942A7918AC2AAD2AB52AFF30F0
:10055C00FA05FF30FB057F30FC05FF30FD0503106D
:10056C00F90C7908F400F501F601F70118300310C5
:10057C00F40DF50DF60DF70DFF3E031DBD2A7408A5
:10058C00FA047508FB047608FC047708FD04780867
:10059C000319D12AD22AD72AF31FD52AD62AD72A29
:1005AC00FD177D08F3007C08F2007B08F1007A0847
:1005BC00F0000800831203132708B1008030B10546
:1005CC002708A8002807B800A61FED2AEE2AEF2A54
:1005DC00381438080319F32AF42A042B380A031D9B
:1005EC00F82AF92A012B0030A7000030A6000030B1
:1005FC00A5000030A400A617A7010C2B0030A70003
:10060C000030A6000030A5000030A400230880397B
:10061C00B1062308A8002807B900A21F162B172B18
:10062C00182B3914390803191C2B1D2B2D2B390AA7
:10063C00031D212B222B2A2B0030A3000030A200FB
:10064C000030A1000030A000A217A301352B003010
:10065C00A3000030A2000030A1000030A00023084D
:10066C00220421042004031D3C2B3D2B542B003071
:10067C00A7000030A6000030A5000030A400803098
:10068C00A6047F30A7043108A7042708A300260876
:10069C00A2002508A1002408A000A92C3808031DDD
:1006AC00582B592B622B0030A3000030A2000030D5
:1006BC00A1000030A000A92C3808A800A901290825
:1006CC00AB0039082802AA00031CAB032A087F3EA2
:1006DC00B2002B080318013E003EB3002708B000FF
:1006EC002608AF002508AE002408AD000030A70096
:1006FC000030A6000030A5000030A4000030B70088
:10070C000030B6000030B5000030B400B901D62B73
:10071C0039080319922B932BB32B0130A80003102B
:10072C00AD0DAE0DAF0DB00DA80B952B0130A80083
:10073C000310A40DA50DA60DA70DA80B9E2BB71F7E
:10074C00A82BA92BAA2B24140130A8000310B40D3C
:10075C00B50DB60DB70DA80BAC2B23083002031D3D
:10076C00C12B22082F02031DC12B21082E02031DB1
:10077C00C12B20082D02031CC42BC52BD42B3717DF
:10078C002008AD022108031C210FAE022208031C15
:10079C00220FAF022308031C230FB0020130B9074C
:1007AC001A303902031CDB2BDC2B8E2B30082F0468
:1007BC002E042D040319E32BE42B032C3414032CEB
:1007CC000130A8000310A40DA50DA60DA70DA80BB4
:1007DC00E82BB71FF22BF32BF42B24140130A800B9
:1007EC000310B40DB50DB60DB70DA80BF62BFF30DD
:1007FC00B2070318B30AFF30B307A61F062C072C49
:10080C00E62BB901B71F0B2C0C2C282CFF30340510
:10081C00A800FF303505A900FF303605AA007F304F
:10082C003705AB002B082A042904280403191F2CB4
:10083C00202C232C0130B900282C241C262C272CEE
:10084C00282C202C390803192C2C2D2C5E2C013033
:10085C00A407003003180130A5070030031801303D
:10086C00A607003003180130A707271C3E2C3F2C8D
:10087C005E2C2408A8002508A9002608AA00270831
:10088C00AB000130AC002B0DAB0CAA0CA90CA80CC6
:10089C00AC0B492C2B08A7002A08A6002908A50098
:1008AC002808A4000130B2070318B30A0030B307BC
:1008BC003308803AFF0080307F02031D672CFF3025
:1008CC003202031C6A2C6B2C792CFF30831203131D
:1008DC00B2000030B3000030A7000030A60000309A
:1008EC00A5000030A400831203133308803AFF00E4
:1008FC0080307F02031D842C013032020318872CB8
:10090C00882C952C83120313B201B3010030A7007D
:10091C000030A6000030A5000030A400B101831205
:10092C0003133208B800381C9C2C9D2C9F2CA61746
:10093C00A12C7F30A6053808A8000310280CA700AE
:10094C003108A7044B2B0800831203133D08C70082
:10095C008030C7053D08C2004207CD00BC1FB72C34
:10096C00B82CB92C4D144D080319BD2CBE2CCD2C14
:10097C004D0A031DC22CC32CCB2C0030BD00003003
:10098C00BC000030BB000030BA00BC17D52C0030C6
:10099C00BD000030BC000030BB000030BA00410884
:1009AC008039C7064108C2004207CC00C01FDF2CAB
:1009BC00E02CE12C4C144C080319E52CE62CF52CFE
:1009CC004C0A031DEA2CEB2CF32C0030C100003038
:1009DC00C0000030BF000030BE00C017FD2C00303E
:1009EC00C1000030C0000030BF000030BE004C0819
:1009FC000319012D022D072D4D08031D062D072D62
:100A0C00102D0030BD000030BC000030BB000030A9
:100A1C00BA00EB2F3A08F00040080A128A116C2039
:100A2C000A128A11710883120313D3007008D200C2
:100A3C005208C200C301C401C5014508CB004408DB
:100A4C00CA004308C9004208C8005308C200C301C9
:100A5C00C401C5014508D1004408D0004308CF00AB
:100A6C004208CE003B08F0003F080A128A116C20A5
:100A7C000A128A11710883120313D3007008D20072
:100A8C005208C200C301C401C5014208C80743088B
:100A9C0003110318013E0319542DC907440803110F
:100AAC000318013E03195B2DCA07450803110318EF
:100ABC00013E0319622DCB075308C200C301C401C8
:100ACC00C5014208CE07430803110318013E031960
:100ADC00702DCF07440803110318013E0319772D1D
:100AEC00D007450803110318013E03197E2DD107C9
:100AFC003C08F0003E080A128A116C200A128A1176
:100B0C00710883120313D3007008D2005208C2007C
:100B1C00C301C401C5014208C807430803110318E7
:100B2C00013E03199A2DC907440803110318013E0D
:100B3C000319A12DCA07450803110318013E031917
:100B4C00A82DCB075308C200C301C401C50142083C
:100B5C00CE07430803110318013E0319B62DCF0726
:100B6C00440803110318013E0319BD2DD007450895
:100B7C0003110318013E0319C42DD1070830C2001C
:100B8C000310C80DC90DCA0DCB0DC20BC62D3B08E9
:100B9C00F0003E080A128A116C200A128A117108A0
:100BAC0083120313D3007008D2005208C2005308FA
:100BBC00C300C401C5014208C80743080311031848
:100BCC00013E0319EA2DC907440803110318013E1D
:100BDC000319F12DCA07450803110318013E031927
:100BEC00F82DCB073A08F0003F080A128A116C2046
:100BFC000A128A11710883120313D3007008D200F1
:100C0C005208C2005308C300C401C5014208C807FA
:100C1C00430803110318013E0319152EC907440894
:100C2C0003110318013E03191C2ECA0745080311B2
:100C3C000318013E0319232ECB070830C200031002
:100C4C00C80DC90DCA0DCB0DC20B252E3A08F000EC
:100C5C003E080A128A116C200A128A11710883123A
:100C6C000313D3007008D2005208C2005308C3000B
:100C7C00C401C5014208C807430803110318013E0B
:100C8C000319492EC907440803110318013E03191F
:100C9C00502ECA07450803110318013E0319572E9D
:100CAC00CB073B08F00040080A128A116C200A128C
:100CBC008A11710883120313D3007008D2005208F2
:100CCC00C2005308C300C401C5014208CE07430843
:100CDC0003110318013E0319742ECF0744080311A6
:100CEC000318013E03197B2ED00745080311031886
:100CFC00013E0319822ED1073C08F0003F080A126E
:100D0C008A116C200A128A11710883120313D30002
:100D1C007008D2005208C2005308C300C401C501B8
:100D2C004208CE07430803110318013E03199F2EF6
:100D3C00CF07440803110318013E0319A62ED00750
:100D4C00450803110318013E0319AD2ED1073C08C9
:100D5C00F00040080A128A116C200A128A117108DC
:100D6C0083120313D3007008D2005208C200530838
:100D7C00C300C401C50108300310C20DC30DC40D5E
:100D8C00C50DFF3E031DC22E4208CE0743080311BA
:100D9C000318013E0319D32ECF074408031103187F
:100DAC00013E0319DA2ED007450803110318013E42
:100DBC000319E12ED1074808C2004908C3004A08AC
:100DCC00C4004B08C50018300310C50CC40CC30C70
:100DDC00C20CFF3E031DEA2E4208CE074308031146
:100DEC000318013E0319FB2ECF0744080311031807
:100DFC00013E0319022FD007450803110318013EC9
:100E0C000319092FD1070830C2000310C80DC90DF2
:100E1C00CA0DCB0DC20B0B2F4D084C07C200C301E2
:100E2C00C30D4208823ED20043080318013EFF3E28
:100E3C00D3003D2F0130C2000310CE0DCF0DD00DCD
:100E4C00D10DC20B222FCB1F2C2F2D2F2E2F4E143A
:100E5C000130C2000310C80DC90DCA0DCB0DC20B59
:100E6C00302FFF30D2070318D30AFF30D307D01F1F
:100E7C00402F412F202FCC01CB1F452F462F622F07
:100E8C00FF304805C200FF304905C300FF304A055A
:100E9C00C4007F304B05C50045084404430442049C
:100EAC000319592F5A2F5D2F0130CC00622F4E1C85
:100EBC00602F612F622F5A2F4C080319662F672F52
:100ECC00982F0130CE07003003180130CF070030C7
:100EDC0003180130D007003003180130D107511C22
:100EEC00782F792F982F4E08C2004F08C300500856
:100EFC00C4005108C5000130C600450DC50CC40C1A
:100F0C00C30CC20CC60B832F4508D1004408D0007B
:100F1C004308CF004208CE000130D2070318D30A91
:100F2C000030D3075308803AFF0080307F02031D46
:100F3C00A12FFF305202031CA42FA52FB02F7F30FE
:100F4C0083120313D1008030D0000030CF0000306A
:100F5C00CE00E12F831203135308803AFF00803038
:100F6C007F02031DBB2F013052020318BE2FBF2F6F
:100F7C00CB2F003083120313D1000030D00000308F
:100F8C00CF000030CE00C701E12F831203135208AB
:100F9C00CD00FF30CE05FF30CF057F30D0050030BF
:100FAC00D1054D1CDA2FDB2FDC2FD0174D08C200DA
:100FBC000310420CD1004708D1045108BD00500861
:100FCC00BC004F08BB004E08BA0008000A128A1178
:100FDC0046200A128A11ED000A128A1147200A12C1
:100FEC008A11EE0083160313A001A10183010A12DA
:040FFC008A11BD2871
:08400000FF3FFF3FFF3FFF3FC0
:02400E00FB3F76
:00000001FF
