:060000000A128A110C280F
:10000800FE00030EF0000A08F1000A128A113029D6
:100018000A128A110F2883120313AF0183010A12EF
:100028008A117C28003083120313A3000030A20039
:100038000030A1000030A000750874047304720435
:1000480003192728282873280130A40036280130EE
:10005800FA000310F20DF30DF40DF50DFA0B2D282F
:100068000130A407F51F39283A282B280130FA0057
:100078000310A00DA10DA20DA30DFA0B3C287508C5
:100088007902031D512874087802031D512873084A
:100098007702031D512872087602031C542855283C
:1000A80064287208F6027308031C730FF7027408B9
:1000B800031C740FF8027508031C750FF90220144D
:1000C80001300310F50CF40CF30CF20CFF3E031D89
:1000D80065280130A402031D722873283A282308D2
:1000E800F5002208F4002108F3002008F2000800B7
:1000F80083120313AD01AE010A128A11DE200A121F
:100108008A11831203132F0803198B288C2895282A
:100118002F080A128A1145210A128A118312031321
:10012800AF010130AD020030031CAE03AE022D0A50
:10013800031DA2282E0A031DA228A32885285030B3
:10014800AD00C330AE000130880685280A128A1136
:100158000C2883120313981718162508A9002608D7
:10016800AA002708AB002808AC0004300310A90D2A
:10017800AA0DAB0DAC0DFF3E031DBA282C08F500E7
:100188002B08F4002A08F3002908F2000130F900CE
:100198003130F8002D30F7000030F6000A128A11CD
:1001A80016200A128A117208FF3E8316031399005B
:1001B8008C16080083120313880183160313880121
:1001C800003083120313A8000030A7002530A600D2
:1001D8008030A5000A128A11AD200A128A11013056
:1001E800F3000A128A11FD200A128A110B178B17C5
:1001F80008000C29730884000A128A1119210A12AE
:100208008A110A128A1145210A128A110130F3074C
:10021800730884000A128A1119210A128A11003AF5
:10022800031D17291829FE28080001308A00040830
:10023800840A82070034553441345234543420340B
:100248005434653473347434203443346F34643430
:1002580065340A340D340034831203138C1E352997
:1002680036293E29981C39293A293B2998101A0819
:10027800AF008C1271088A00700E8300FE0E7E0E8D
:100288000900F20072088312031399000C1E4D290D
:080298004E294A290C1208004E
:08400000FF3FFF3FFF3FFF3FC0
:02400E00FB3F76
:00000001FF
