:100000000A128A11FC2F00308A000408840A820731
:10001000003455344134523454342034543465342B
:1000200073347434203443346F34643465340A34A4
:040030000D34003457
:100E0000831203138C1E052F062F002F8C121A0835
:100E10000800F00070088312031399000C1E112FB4
:100E2000122F0E2F0C120800003083120313A300A0
:100E30000030A2002530A1008030A0000A128A11E3
:100E40005E270A128A110130F1000A128A11422724
:100E50000A128A1108000A128A1114270A128A112A
:100E60000A128A1100270A128A1183120313A8009A
:100E700028080A128A1109270A128A11302F0A1229
:100E80008A110028512F710884000A128A11032048
:100E90000A128A110A128A1109270A128A110130CC
:100EA000F107710884000A128A1103200A128A11BC
:100EB000003A031D5C2F5D2F432F0800831203139C
:100EC0009817831603131815831203131816831625
:100ED00003139816831203132008A4002108A50009
:100EE0002208A6002308A70004300310A40DA50DB6
:100EF000A60DA70DFF3E031D752F2708F30026083A
:100F0000F2002508F1002408F0000130F70031302C
:100F1000F6002D30F5000030F4000A128A119827EF
:100F20000A128A117008FF3E831603139900080005
:100F30000030FC000030FB000030FA000030F90007
:100F400073087204710470040319A72FA82FF32FDC
:100F50000130FD00B62F0130F8000310F00DF10D47
:100F6000F20DF30DF80BAD2F0130FD07F31FB92F74
:100F7000BA2FAB2F0130F8000310F90DFA0DFB0D5D
:100F8000FC0DF80BBC2F73087702031DD12F7208DC
:100F90007602031DD12F71087502031DD12F700831
:100FA0007402031CD42FD52FE42F7008F4027108AB
:100FB000031C710FF5027208031C720FF60273080E
:100FC000031C730FF702791401300310F30CF20CB9
:100FD000F10CF00CFF3E031DE52F0130FD02031D57
:100FE000F22FF32FBA2F7C08F3007B08F2007A0867
:100FF000F1007908F000080083010A128A112B2FF2
:08400000FF3FFF3FFF3FFF3FC0
:02400E00FB3F76
:00000001FF
