:020000040000FA
:060000000A128A11FC2F18
:100F5E008316031388018312031388018316031368
:100F6E00061408000A128A11AF270A128A11831278
:100F7E0003130618C32FC42FBE2F0130880600306E
:100F8E00F7000030F600C330F5005030F4000130A9
:100F9E00F0000030F1000030F2000030F300700875
:100FAE00F4027108031C710FDD2FDE2FF50272089B
:100FBE00031C720FE32FE42FF6027308031C730F4A
:100FCE00E92FEA2FF702740A031DF72F750A031D86
:100FDE00F72F760A031DF72F770A031DF72FF82F29
:100FEE00CE2FBE2F0A128A11002883010A128A11EF
:020FFE00B92F09
:02400E00FB3F76
:00000001FF
