:060000000A128A11ED2F27
:100AE2008316031306083F38860008000A128A118B
:100AF20071250A128A110A128A118D250A128A1187
:100B020008003F3406345B344F3466346D347D3430
:100B120007347F346F3401348316031388010508C8
:100B2200C3398500831203130508C3398500080001
:100B32007E088A007F0882000A128A1199250A1209
:100B42008A118000840A04087D0603190034FF0A12
:100B52000319FE0A9D2DF0006400831603178C18FA
:100B6200B32DB42DAD2D7008831203178D003F30C5
:100B7200831603178C050C14831203170C08080044
:100B8200F1007108031DC62DC72DCC2D831203134E
:100B920006083F39EA2D3F30831203130605F000A1
:100BA2003F3070060319D62DD72DDE2D3E080319CE
:100BB200DB2DDC2DDE2DBE01C72D3F300605F000FA
:100BC2003F307006031DE62DE72DE92D0130BE00F2
:100BD2003F300800F100831603178C18F12DF22D17
:100BE200EC2D7108831203178D0070088C003F30C2
:100BF200831603178C058312031303108B1F022E17
:100C0200032E042E03148B13831603170C15553071
:100C12008D00AA308D008C140C1183120313031C57
:100C2200132E142E152E8B170800F401740870076A
:100C3200F1007108840083130008831203138800F3
:100C42000430F100740A272E0310F10DFF3E031D3C
:100C5200252E0508C339710485009030F200013059
:100C6200F3000130F2020030031CF303F302720AB4
:100C7200031D3F2E730A031D3F2E402E322E0130DC
:100C8200F40704307402031C472E482E172E080066
:100C9200F2003E307206031D4F2E502E5B2E831241
:100CA20003133F08F00000300A128A11EB250A12E2
:100CB2008A117C2E3D307206031D602E612E6B2E32
:100CC20000300A128A11AC250A128A118312031308
:100CD200BF007C2E3B307206031D702E712E7C2EBF
:100CE200013083120313BF070A303F06031D7A2E19
:100CF2007B2E7C2EBF01831203133F080800FD01E7
:100D0200FB1F842E852E8C2EFA09FB09FA0A031981
:100D1200FB0A0130FD00F91F8F2E902E952EF80947
:100D2200F909F80A0319F90A7808790403199A2EBD
:100D32009B2EC82E0130FC00A72E01300310F80DA7
:100D4200F90DFF3E031D9F2E0130FC07F91FAA2E4D
:100D5200AB2E9E2E79087B02031DB12E78087A02F3
:100D6200031CB42EB52EBB2E7808FA027908031C98
:100D7200FB03FB0201300310F90CF80CFF3E031DCC
:100D8200BC2E0130FC02031DC72EC82EAB2E7D08DF
:100D92000319CC2ECD2ED22EFA09FB09FA0A031919
:100DA200FB0A7B08F9007A08F8000800F501F11F38
:100DB200DB2EDC2EE32EF009F109F00A0319F10A09
:100DC2000130F500F31FE62EE72EEE2EF209F309AD
:100DD200F20A0319F30A0130F506F601F701700869
:100DE20071040319F52EF62E2B2F0130F400022F79
:100DF20001300310F00DF10DFF3E031DFA2E0130FC
:100E0200F407F11F052F062FF92E01300310F60DFE
:100E1200F70DFF3E031D072F71087302031D132FE9
:100E220070087202031C162F172F1E2F7008F20271
:100E32007108031CF303F302761401300310F10C62
:100E4200F00CFF3E031D1F2F0130F402031D2A2F59
:100E52002B2F062F750803192F2F302F352FF60948
:100E6200F709F60A0319F70A7708F1007608F00085
:100E7200080034308400243083120313A0000A30A7
:100E8200A10083130008A200040AA3002008840022
:100E920022088000040AA00023088400A10B422F2C
:100EA2000A128A1177250A128A1101300A128A114E
:100EB200C1250A128A1183120313B20032080A12E0
:100EC2008A1149260A128A1183120313B3000A30C7
:100ED200F8000030F9003308A000A1012008FA0050
:100EE2002108FB000A128A1180260A128A11780848
:100EF200243E84008313000883120313B1000A30D6
:100F0200F8000030F9000A30F0000030F100330838
:100F1200A000A1012008F2002108F3000A128A11A0
:100F2200D7260A128A117108FB007008FA000A1209
:100F32008A1180260A128A117808243E84008313BB
:100F4200000883120313B0000A30F8000030F900E1
:100F52006430F0000030F1003308A000A101200845
:100F6200F2002108F3000A128A11D7260A128A1106
:100F72007108FB007008FA000A128A1180260A1210
:100F82008A117808243E8400831300088312031315
:100F9200AF00E830F0000330F1003308A000A101F7
:100FA2002008F2002108F3000A128A11D7260A1239
:100FB2008A117008243E84008313000883120313ED
:100FC200AE002E30F0000A128A1116260A128A1179
:100FD200562F0A128A11002883133F30FD00053074
:100FE200FE008230FF00343084000A128A119D25EF
:0E0FF2000A128A11BF0183010A128A113A2FD6
:08400000FF3FFF3FFF3FFF3FC0
:02400E00FB3F76
:00000001FF
